:020000040000FA
:100000000128831603138601FF30870088018312BD
:1000100003138601FF30870088018316031319300C
:100020009900831603138316031304309800831674
:1000300003138312031390309800831203130615E1
:1000400086118612292035208C1E24281A08432068
:10005000242802303D200E303D2038303D2008005D
:1000600001303D20492035200800533043204F30D7
:100070004320533043203020080088000612061722
:1000800049200613080088000616061749200613A3
:1000900008003C30A0008230A100A10B4D28A00B2D
:0400A0004B280800E1
:02400E00313F40
:00000001FF
